:080000000C9438000C94000080
:100008000C9400000C9400000C9400000C94000068
:100018000C9400000C9400000C9400000C94000058
:100028000C9400000C9400000C9400000C94000048
:100038000C9400000C9400000C9400000C94000038
:100048000C9400000C9400000C9400003F00060083
:100058005B004F0066006E007E0007007F006F00A7
:100068001300600154000000F894EE27ECBBF1E0A7
:10007800FBBFEBBFE5BFF8E1F1BDE1BD8DE0A2E05C
:10008800BB27ED938A95E9F780E094E0A0E6ED932D
:100098000197E9F7E8E6F0E085919591009761F01E
:1000A800A591B59105901590BF01F00105900D92AD
:1000B8000197E1F7FB01F0CFEFE5EDBFE4E0EEBF1C
:1000C800C0E6D1E00C94D800D898D998DA9A089567
:1000D800D898D99ADA980895D998D89ADA98089534
:1000E800E2E0F0E02F0100244014500414F1E9E0AC
:1000F800F0E03F01002460147004BCF000240414F4
:10010800050449F4E5E0F0E06E167F0624F40024C7
:10011800601470040CF402C0DBDF01C0D5DF5BD0D3
:100128006DD0F30131973F01E5CFF20131972F01EF
:10013800DACF882499240895E1E0F0E02F01002423
:10014800401450046CF1E1E0F0E0E415F50579F4B1
:10015800E5E0F0E03F010024601470043CF03BD07F
:10016800BBDF4CD0F30131973F01F5CF15C0E9E073
:10017800F0E03F0100246014700474F02CD0E6E035
:10018800F0E06E167F0614F0A7DF01C0A1DF36D0BD
:10019800F30131973F01EECFF20131972F01CFCF15
:1001A800E1E0F0E04F010895EFEFEABBE7BBE4BB05
:1001B800E0E0EBBBE0916001E8BBE5BBE1E0F0E02B
:1001C8004F01E1E0F0E0E815F90511F489DF01C01D
:1001D800B3DFF7CFFFCFF201A0E6B1E0EE0FFF1FCC
:1001E800AE0FBF1FEC91E8BBF301A0E6B1E0EE0F44
:1001F800FF1FAE0FBF1FEC91E5BB0895E8EEF3E0DB
:10020800FA93EA930C940801E991F991309639F040
:1002180080EA9FE00197F1F7A8953197C9F708950B
:00000001FF
